:100000000C942A000C9447000C94CA010C944700ED
:100010000C9447000C9447000C948D000C944700FE
:100020000C9447000C9447000C9468010C94130145
:100030000C9447000C9447000C9447000C94470024
:100040000C9447000C9447000C9447000C94470014
:100050000C94470011241FBECFE5D8E0DEBFCDBF12
:1000600010E0A0E6B0E0EEE2F5E102C005900D92EE
:10007000A037B107D9F710E0A0E7B0E001C01D92AA
:10008000A938B107E1F70E94F1090C94950A0C9484
:100090000000EFE4F0E080818D7F808380818E7F9F
:1000A0008083EEE4F0E080818F7E80838081877F93
:1000B000808380818460808380818D7F8083808144
:1000C0008E7F8083089590937100809370000895CF
:1000D000E9E5F0E08081806280830895E9E5F0E061
:1000E00080818F7D8083089526B537B5822F932F29
:1000F0000895882341F0813059F4EEE4F0E08081E6
:10010000806480830895EEE4F0E080818F7B8083BB
:10011000089581E00E94790008951F920F920FB612
:100120000F9211242F933F934F935F936F937F937D
:100130008F939F93AF93BF93EF93FF93E0917000E2
:10014000F09171000995FF91EF91BF91AF919F914F
:100150008F917F916F915F914F913F912F910F9070
:100160000FBE0F901F901895E3E5F0E08081886046
:10017000808380818064808380818F7C8083808184
:10018000806280830895E3E5F0E08081887F80834A
:100190008081856080830895E3E5F0E080818B7F36
:1001A000808380818D7F808380818E7F808308958E
:1001B000882319F0813061F406C0E9E5F0E0808120
:1001C000816080830895E9E5F0E08081826080832A
:1001D0000895882319F0813061F406C0E9E5F0E064
:1001E00080818E7F80830895E9E5F0E080818D7FB6
:1001F000808308950895982F80E064E670E00E945F
:10020000310A615070401AF4709561957F4F6CBF50
:1002100008950895E62FF0E0EE0FFF1FE558FF4F19
:100220009183808308951F920F920FB60F9211242D
:100230002F933F934F935F936F937F938F939F93EE
:10024000AF93BF93EF93FF93E0917B00F0917C001D
:10025000309769F18091830090918400A09185008E
:10026000B09186000196A11DB11D809383009093EB
:100270008400A0938500B093860020917200309195
:100280007300409174005091750082179307A40782
:10029000B50769F4099510928300109284001092BA
:1002A00085001092860080917A00819582BFFF912F
:1002B000EF91BF91AF919F918F917F916F915F91DE
:1002C0004F913F912F910F900FBE0F901F90189557
:1002D0001F920F920FB60F9211242F933F934F93BB
:1002E0005F936F937F938F939F93AF93BF93EF939E
:1002F000FF93E0917D00F0917E00309749F180916D
:100300007F0090918000A0918100B09182000196C1
:10031000A11DB11D80937F0090938000A093810068
:10032000B093820020917600309177004091780060
:100330005091790082179307A407B50749F40995EE
:1003400010927F0010928000109281001092820023
:10035000FF91EF91BF91AF919F918F917F916F919D
:100360005F914F913F912F910F900FBE0F901F9073
:100370001895EFE5F0E08081806880830895EFE5CF
:10038000F0E080818F778083089590938800809338
:10039000870008951F920F920FB60F9211242F938A
:1003A0003F934F935F936F937F938F939F93AF93FD
:1003B000BF93EF93FF93E0918700F0918800099538
:1003C000FF91EF91BF91AF919F918F917F916F912D
:1003D0005F914F913F912F910F900FBE0F901F9003
:1003E0001895813099F0813018F0823039F51CC0B1
:1003F000E5E5F0E080818260808380818E7F80836C
:10040000EBE5F0E080818064808318C0E5E5F0E0F2
:1004100080818860808380818B7F8083EBE5F0E042
:100420008081806880830AC0E4E5F0E080818F7B72
:100430008083EBE5F0E08081806280830E94B901D7
:100440000895282F362F6AE00E94250A492F822F0F
:100450000E94250A332321F0313009F086C046C0BE
:100460008230D1F0833020F4813009F07EC006C0A4
:10047000833001F1843009F078C02AC0EAE3F0E06B
:10048000208181E090E002C0880F991F4A95E2F731
:100490008095822380830895E7E3F0E0208181E066
:1004A00090E002C0880F991F4A95E2F78095822359
:1004B00080830895E4E3F0E0208181E090E002C0D1
:1004C000880F991F4A95E2F78095822380830895CB
:1004D000E1E3F0E0208181E090E002C0880F991F05
:1004E0004A95E2F780958223808308958230B9F09F
:1004F000833018F48130C9F505C08330E9F08430C9
:10050000A1F527C0EAE3F0E0208181E090E002C09D
:10051000880F991F4A95E2F7282B20830895E7E377
:10052000F0E0208181E090E002C0880F991F4A9599
:10053000E2F7282B20830895E4E3F0E0208181E0B6
:1005400090E002C0880F991F4A95E2F7282B20837C
:100550000895E1E3F0E0208181E090E002C0880F9F
:10056000991F4A95E2F7282B20830895282F362FCC
:100570006AE00E94250A492F822F0E94250A332310
:1005800021F0313009F086C046C08230D1F083308E
:1005900020F4813009F07EC006C0833001F1843040
:1005A00009F078C02AC0EBE3F0E0208181E090E020
:1005B00002C0880F991F4A95E2F7809582238083B5
:1005C0000895E8E3F0E0208181E090E002C0880F28
:1005D000991F4A95E2F78095822380830895E5E389
:1005E000F0E0208181E090E002C0880F991F4A95D9
:1005F000E2F78095822380830895E2E3F0E0208192
:1006000081E090E002C0880F991F4A95E2F780953B
:100610008223808308958230B9F0833018F48130CA
:10062000C9F505C08330E9F08430A1F527C0EBE3BC
:10063000F0E0208181E090E002C0880F991F4A9588
:10064000E2F7282B20830895E8E3F0E0208181E0A1
:1006500090E002C0880F991F4A95E2F7282B20836B
:100660000895E5E3F0E0208181E090E002C0880F8A
:10067000991F4A95E2F7282B20830895E2E3F0E0E2
:10068000208181E090E002C0880F991F4A95E2F72F
:10069000282B20830895282F6AE00E94250A392FED
:1006A000822F0E94250A8230A1F0833018F4813015
:1006B00029F406C08330B1F08430E9F080E0089579
:1006C00089B390E002C0959587953A95E2F78170DD
:1006D000089586B390E002C0959587953A95E2F724
:1006E0008170089583B390E002C0959587953A95FF
:1006F000E2F78170089580B390E002C095958795E8
:100700003A95E2F781700895282F6AE00E94250A41
:10071000392F822F0E94250A8230B9F0833018F4D5
:100720008130C9F505C08330E9F08430A1F527C0D8
:10073000EBE3F0E0208181E090E002C0880F991F98
:100740003A95E2F7282720830895E8E3F0E0208136
:1007500081E090E002C0880F991F3A95E2F72827C0
:1007600020830895E5E3F0E0208181E090E002C07D
:10077000880F991F3A95E2F7282720830895E2E32E
:10078000F0E0208181E090E002C0880F991F3A9547
:10079000E2F7282720830895E7E2F0E08081806473
:1007A000808380818F77808380818F7D808380812B
:1007B0008F7E80838081877F808380818B7F808311
:1007C00080818D7F808380818E7F8083E6E2F0E070
:1007D0008081846080838081826080838081816069
:1007E0008083808180628083808180688083089597
:1007F000E6E2F0E0808180648083808184FFFDCF29
:1008000024B135B1822F932F08950E94F803A0E000
:10081000B0E0BC01CD0124EF31E040E050E00E94A7
:10082000060A2FEF33E040E050E00E94440A822F96
:10083000932F08950E94CC030895843009F494C046
:10084000853058F48130C9F18130D0F0823009F41C
:1008500051C0833009F035C16AC0873009F4DBC06C
:10086000883038F4853009F49CC0863009F029C1FD
:10087000B5C0883009F4ECC0893009F022C105C147
:100880008BE061E00E94B6028CE061E00E94B6025B
:100890008DE061E00E94B6028EE061E00E94B60247
:1008A0008FE061E00E94B60280E161E00E94B60242
:1008B00081E160E00E94B60208958BE060E00E9452
:1008C000B6028CE061E00E94B6028DE061E00E9419
:1008D000B6028EE060E00E94B6028FE060E00E9407
:1008E000B60280E160E00E94B60281E160E00E9411
:1008F000B60208958BE061E00E94B6028CE061E0F0
:100900000E94B6028DE060E00E94B6028EE061E0D7
:100910000E94B6028FE061E00E94B60280E160E0D2
:100920000E94B60281E161E00E94B60208958BE068
:1009300061E00E94B6028CE061E00E94B6028DE0A8
:1009400061E00E94B6028EE061E00E94B6028FE094
:1009500060E00E94B60280E160E00E94B60281E1A0
:1009600061E00E94B60208958BE060E00E94B6024A
:100970008CE061E00E94B6028DE061E00E94B60268
:100980008EE060E00E94B6028FE060E00E94B60256
:1009900080E161E00E94B60281E161E00E94B6025E
:1009A00008958BE061E00E94B6028CE060E00E9456
:1009B000B6028DE061E00E94B6028EE061E00E9426
:1009C000B6028FE060E00E94B60280E161E00E9422
:1009D000B60281E161E00E94B60208958BE061E019
:1009E0000E94B6028CE060E00E94B6028DE061E0F9
:1009F0000E94B6028EE061E00E94B6028FE061E0E4
:100A00000E94B60280E161E00E94B60281E161E0ED
:100A10000E94B60208958BE061E00E94B6028CE06D
:100A200061E00E94B6028DE061E00E94B6028EE0B5
:100A300060E00E94B6028FE060E00E94B60280E1B2
:100A400060E00E94B60281E160E00E94B602089573
:100A50008BE061E00E94B6028CE061E00E94B60289
:100A60008DE061E00E94B6028EE061E00E94B60275
:100A70008FE061E00E94B60280E161E00E94B60270
:100A800081E161E00E94B60208958BE061E00E947E
:100A9000B6028CE061E00E94B6028DE061E00E9447
:100AA000B6028EE061E00E94B6028FE060E00E9434
:100AB000B60280E161E00E94B60281E161E00E943D
:100AC000B6020895EF92FF920F931F93CF93DF9397
:100AD000282F6AE00E94250AE92E822F0E94250A0B
:100AE000F82EC0E0D0E000EA1FE08E2D0E941D0429
:100AF00084E261E00E94B602C8010197F1F784E246
:100B000060E00E94B6028F2D0E941D0485E261E024
:100B10000E94B602C8010197F1F785E260E00E94E9
:100B2000B602219681E0C039D807F9F6DF91CF915E
:100B30001F910F91FF90EF9008951F93182F882316
:100B40002CF0812F0E9462051150DAF71F91089551
:100B50000F931F93082F10E0812F0E9462051F5FE3
:100B60000117D0F71F910F9108958BE061E00E946B
:100B700021028CE061E00E9421028DE061E00E9490
:100B800021028EE061E00E9421028FE061E00E947C
:100B9000210280E161E00E94210281E161E00E9486
:100BA000210284E261E00E94210285E261E00E946C
:100BB000210208951F93823069F1833018F4813047
:100BC00039F408C0833009F445C0843009F460C0AA
:100BD00011E07CC08AE20E944B03182F8AE20E9437
:100BE0004B03882309F072C020E233E040E951E072
:100BF000CA010197F1F721503040D1F78AE20E94F3
:100C00004B03882309F062C08AE20E944B038823C9
:100C1000D9F35BC08BE20E944B03182F8BE20E943A
:100C20004B03882309F052C020E233E040E951E051
:100C3000CA010197F1F721503040D1F78BE20E94B1
:100C40004B03882309F042C08BE20E944B038823A8
:100C5000D9F33BC08CE20E944B03182F8CE20E9418
:100C60004B03882399F520E233E040E951E0CA01C3
:100C70000197F1F721503040D1F78CE20E944B03ED
:100C8000882321F58CE20E944B038823D9F31DC0F1
:100C90008DE20E944B03182F8DE20E944B038823A4
:100CA000A9F420E233E040E951E0CA010197F1F7ED
:100CB00021503040D1F78DE20E944B03882331F45C
:100CC0008DE20E944B038823D9F310E0812F1F91FE
:100CD0000895823079F0833018F48130C9F405C06A
:100CE000833069F08430A1F40FC08AE260E00E9492
:100CF000B60208958BE260E00E94B60208958CE28D
:100D000060E00E94B60208958DE260E00E94B602A3
:100D100008958130C9F0813020F0823009F039C067
:100D200026C08EE161E00E94B60228EE33E040E981
:100D300051E0CA010197F1F721503040D1F78EE11F
:100D400060E00E94B60208958FE161E00E94B60261
:100D500028EE33E040E951E0CA010197F1F7215054
:100D60003040D1F78FE160E00E94B602089580E242
:100D700061E00E94B60228EE33E040E951E0CA018A
:100D80000197F1F721503040D1F780E260E00E94F6
:100D9000B60208951F93182F0E94890628EE33E0AB
:100DA00040E951E0CA010197F1F721503040D1F7F5
:100DB000812F0E94890628EE33E040E951E0CA0104
:100DC0000197F1F721503040D1F71F9108958130FC
:100DD00051F0813018F0823079F40AC08EE160E081
:100DE0000E94B60208958FE160E00E94B602089565
:100DF00080E260E00E94B6020895813051F08130B7
:100E000018F0823079F40AC08EE161E00E94B602E7
:100E100008958FE161E00E94B602089580E261E0EA
:100E20000E94B6020895813049F0813018F0823076
:100E300061F408C08EE10E94840308958FE10E944E
:100E40008403089580E20E9484030895813051F064
:100E5000813018F0823079F40AC08EE161E00E949E
:100E6000210208958FE161E00E942102089580E24D
:100E700061E00E9421020895EF92FF920F931F9369
:100E8000182F8BE061E00E94B602612F62956F70AF
:100E900061708DE00E94B602612F62956695677061
:100EA00061708EE00E94B602612F6295669566952C
:100EB000637061708FE00E94B602612F661F662723
:100EC000661F80E10E94B6028CE061E00E94B602DB
:100ED0000F2EF0E2EF2EFEE4FF2EF02DC70101975A
:100EE000F1F78CE060E00E94B602C7010197F1F7CC
:100EF000012F0295007F11708DE0612F0E94B602D4
:100F0000602F62956695677061708EE00E94B602F0
:100F1000602F629566956695637061708FE00E94A0
:100F2000B602001F0027001F80E1602F0E94B6025A
:100F30008CE061E00E94B602C7010197F1F78CE0F6
:100F400060E00E94B6021F910F91FF90EF9008950C
:100F5000AF92BF92CF92DF92EF92FF920F93DF9307
:100F6000CF93CDB7DEB766970FB6F894DEBF0FBE4E
:100F7000CDBF6B017C0199235CF4F094E094D09494
:100F8000C094C11CD11CE11CF11C8DE20E943C07E5
:100F900000E05E010894A11CB11C802F992787FDF9
:100FA00090959501280F391F3E8B2D8BC701B601F7
:100FB0002AE030E040E050E00E94660AED89FE89B8
:100FC0006083C701B6012AE030E040E050E00E94B3
:100FD000660A822F932FA42FB52F6C017D01802FDD
:100FE0008F5FC114D104E104F10411F0082FD5CFB3
:100FF00000238CF07E010894E11CF11C802F9927BE
:1010000087FD9095F701E80FF91F8081805D0E94B0
:101010003C0701509AF766960FB6F894DEBF0FBEF4
:10102000CDBFCF91DF910F91FF90EF90DF90CF90E8
:10103000BF90AF9008951F93CF93DF93EC01888109
:10104000882351F010E00E943C071F5FFE01E10F72
:10105000F11D80818823B9F7DF91CF911F91089509
:10106000EF92FF920F931F93182F8BE060E00E9486
:10107000B602612F62956F7061708DE00E94B602BA
:10108000612F62956695677061708EE00E94B6026E
:10109000612F629566956695637061708FE00E941E
:1010A000B602612F661F6627661F80E10E94B602A6
:1010B0008CE061E00E94B6020F2EF0E2EF2EFEE41B
:1010C000FF2EF02DC7010197F1F78CE060E00E9440
:1010D000B602C7010197F1F7012F0295007F117049
:1010E0008DE0612F0E94B602602F62956695677051
:1010F00061708EE00E94B602602F629566956695DB
:10110000637061708FE00E94B602001F0027001F0D
:1011100080E1602F0E94B6028CE061E00E94B6027E
:10112000C7010197F1F78CE060E00E94B6021F91C1
:101130000F91FF90EF900895DF93CF9300D0CDB73C
:10114000DEB790E8998390EC9A83FE01E80FF11DD9
:101150008181860F0E9430080F900F90CF91DF9110
:10116000089581E00E94300808958DE061E00E94BA
:1011700021028EE061E00E9421028FE061E00E9486
:10118000210280E161E00E9421028BE061E00E9487
:1011900021028CE061E00E94210283E30E9430087A
:1011A00082E30E94300888E20E9430088CE00E94AE
:1011B000300881E00E94300808954F925F926F924C
:1011C0007F928F929F92AF92BF92CF92DF92EF92D7
:1011D000FF920F931F93DF93CF93CDB7DEB7609746
:1011E0000FB6F894DEBF0FBECDBFDE011196E0E66C
:1011F000F0E080E101900D928150E1F77724AA247C
:10120000BB242E010894411C511C0F2EFAE26F2EB4
:10121000F02D00E911E088EE93E0982E892E0F2E34
:10122000F8E1EF2EF02DEA0C8E2D60E00E94B60260
:10123000C501880F991F880F991F6201C80ED91E1A
:10124000F62C8F2D0E944B03882399F4892D982D1D
:10125000F8013197F1F70197D9F78F2D0E944B03D1
:10126000882339F4F60170808F2D0E944B03882368
:10127000D9F3F3940894C11CD11CFEE2FF1609F7C0
:101280008E2D61E00E94B6020894A11CB11C84E07E
:10129000A816B10421F6872D60960FB6F894DEBF2C
:1012A0000FBECDBFCF91DF911F910F91FF90EF90B7
:1012B000DF90CF90BF90AF909F908F907F906F9076
:1012C0005F904F90089588E161E00E94210289E1DA
:1012D00061E00E9421028AE161E00E9421028BE12B
:1012E00061E00E94210288E161E00E94B60289E18A
:1012F00061E00E94B6028AE161E00E94B6028BE1E1
:1013000061E00E94B6028AE260E00E9421028BE264
:1013100060E00E9421028CE260E00E9421028DE2E6
:1013200060E00E942102089583E261E00E94B6021B
:1013300028EE33E040E951E0CA010197F1F721506E
:101340003040D1F783E260E00E94B60228EE33E03D
:1013500040E951E0CA010197F1F721503040D1F73F
:1013600083E261E00E94B60228EE33E040E951E0FA
:10137000CA010197F1F721503040D1F783E260E0D4
:101380000E94B602089583E261E00E94B60228EE50
:1013900033E040E951E0CA010197F1F721503040B4
:1013A000D1F783E260E00E94B602089583E260E034
:1013B0000E94B602089583E261E00E94B602089599
:1013C00083E20E948403089583E261E00E94210287
:1013D000089581E00E941307089581E00E94130799
:1013E00008958DEE99E060E00E940A010E94B90123
:1013F0000E94B40081E00E94260768EE73E080E05E
:1014000090E00E94FA000E94C300FFCF629FD001CB
:10141000739FF001829FE00DF11D649FE00DF11DAF
:10142000929FF00D839FF00D749FF00D659FF00D5E
:101430009927729FB00DE11DF91F639FB00DE11D4B
:10144000F91FBD01CF0111240895991B79E004C053
:10145000991F961708F0961B881F7A95C9F78095F3
:10146000089597FB092E07260AD077FD04D049D0AE
:1014700006D000201AF4709561957F4F0895F6F715
:10148000909581959F4F0895A1E21A2EAA1BBB1B30
:10149000FD010DC0AA1FBB1FEE1FFF1FA217B30740
:1014A000E407F50720F0A21BB30BE40BF50B661F56
:1014B000771F881F991F1A9469F76095709580951A
:1014C00090959B01AC01BD01CF01089597FB092EBA
:1014D00005260ED057FD04D0D7DF0AD0001C38F403
:1014E00050954095309521953F4F4F4F5F4F089550
:1014F000F6F790958095709561957F4F8F4F9F4F30
:101500000895AA1BBB1B51E107C0AA1FBB1FA6174A
:10151000B70710F0A61BB70B881F991F5A95A9F79C
:0E15200080959095BC01CD010895F894FFCF01
:10152E003132334134353642373839432A30234449
:00000001FF
